{
  "_format": "hh-sol-artifact-1",
  "contractName": "DynamicWorldNFT",
  "sourceName": "contracts/DynamicWorldNFT.sol",
  "abi": [
    {
      "inputs": [],
      "stateMutability": "nonpayable",
      "type": "constructor"
    },
    {
      "inputs": [
        {
          "internalType": "address",
          "name": "sender",
          "type": "address"
        },
        {
          "internalType": "uint256",
          "name": "tokenId",
          "type": "uint256"
        },
        {
          "internalType": "address",
          "name": "owner",
          "type": "address"
        }
      ],
      "name": "ERC721IncorrectOwner",
      "type": "error"
    },
    {
      "inputs": [
        {
          "internalType": "address",
          "name": "operator",
          "type": "address"
        },
        {
          "internalType": "uint256",
          "name": "tokenId",
          "type": "uint256"
        }
      ],
      "name": "ERC721InsufficientApproval",
      "type": "error"
    },
    {
      "inputs": [
        {
          "internalType": "address",
          "name": "approver",
          "type": "address"
        }
      ],
      "name": "ERC721InvalidApprover",
      "type": "error"
    },
    {
      "inputs": [
        {
          "internalType": "address",
          "name": "operator",
          "type": "address"
        }
      ],
      "name": "ERC721InvalidOperator",
      "type": "error"
    },
    {
      "inputs": [
        {
          "internalType": "address",
          "name": "owner",
          "type": "address"
        }
      ],
      "name": "ERC721InvalidOwner",
      "type": "error"
    },
    {
      "inputs": [
        {
          "internalType": "address",
          "name": "receiver",
          "type": "address"
        }
      ],
      "name": "ERC721InvalidReceiver",
      "type": "error"
    },
    {
      "inputs": [
        {
          "internalType": "address",
          "name": "sender",
          "type": "address"
        }
      ],
      "name": "ERC721InvalidSender",
      "type": "error"
    },
    {
      "inputs": [
        {
          "internalType": "uint256",
          "name": "tokenId",
          "type": "uint256"
        }
      ],
      "name": "ERC721NonexistentToken",
      "type": "error"
    },
    {
      "inputs": [
        {
          "internalType": "address",
          "name": "owner",
          "type": "address"
        }
      ],
      "name": "OwnableInvalidOwner",
      "type": "error"
    },
    {
      "inputs": [
        {
          "internalType": "address",
          "name": "account",
          "type": "address"
        }
      ],
      "name": "OwnableUnauthorizedAccount",
      "type": "error"
    },
    {
      "anonymous": false,
      "inputs": [
        {
          "indexed": true,
          "internalType": "address",
          "name": "owner",
          "type": "address"
        },
        {
          "indexed": true,
          "internalType": "address",
          "name": "approved",
          "type": "address"
        },
        {
          "indexed": true,
          "internalType": "uint256",
          "name": "tokenId",
          "type": "uint256"
        }
      ],
      "name": "Approval",
      "type": "event"
    },
    {
      "anonymous": false,
      "inputs": [
        {
          "indexed": true,
          "internalType": "address",
          "name": "owner",
          "type": "address"
        },
        {
          "indexed": true,
          "internalType": "address",
          "name": "operator",
          "type": "address"
        },
        {
          "indexed": false,
          "internalType": "bool",
          "name": "approved",
          "type": "bool"
        }
      ],
      "name": "ApprovalForAll",
      "type": "event"
    },
    {
      "anonymous": false,
      "inputs": [
        {
          "indexed": false,
          "internalType": "uint256",
          "name": "_fromTokenId",
          "type": "uint256"
        },
        {
          "indexed": false,
          "internalType": "uint256",
          "name": "_toTokenId",
          "type": "uint256"
        }
      ],
      "name": "BatchMetadataUpdate",
      "type": "event"
    },
    {
      "anonymous": false,
      "inputs": [
        {
          "indexed": false,
          "internalType": "uint256",
          "name": "_tokenId",
          "type": "uint256"
        }
      ],
      "name": "MetadataUpdate",
      "type": "event"
    },
    {
      "anonymous": false,
      "inputs": [
        {
          "indexed": true,
          "internalType": "address",
          "name": "to",
          "type": "address"
        },
        {
          "indexed": true,
          "internalType": "uint256",
          "name": "tokenId",
          "type": "uint256"
        },
        {
          "indexed": false,
          "internalType": "enum DynamicWorldNFT.WorldCategory",
          "name": "category",
          "type": "uint8"
        }
      ],
      "name": "NFTMinted",
      "type": "event"
    },
    {
      "anonymous": false,
      "inputs": [
        {
          "indexed": true,
          "internalType": "address",
          "name": "oracle",
          "type": "address"
        },
        {
          "indexed": false,
          "internalType": "bool",
          "name": "status",
          "type": "bool"
        }
      ],
      "name": "OracleAuthorized",
      "type": "event"
    },
    {
      "anonymous": false,
      "inputs": [
        {
          "indexed": true,
          "internalType": "address",
          "name": "previousOwner",
          "type": "address"
        },
        {
          "indexed": true,
          "internalType": "address",
          "name": "newOwner",
          "type": "address"
        }
      ],
      "name": "OwnershipTransferred",
      "type": "event"
    },
    {
      "anonymous": false,
      "inputs": [
        {
          "indexed": true,
          "internalType": "address",
          "name": "from",
          "type": "address"
        },
        {
          "indexed": true,
          "internalType": "address",
          "name": "to",
          "type": "address"
        },
        {
          "indexed": true,
          "internalType": "uint256",
          "name": "tokenId",
          "type": "uint256"
        }
      ],
      "name": "Transfer",
      "type": "event"
    },
    {
      "anonymous": false,
      "inputs": [
        {
          "indexed": true,
          "internalType": "uint256",
          "name": "tokenId",
          "type": "uint256"
        },
        {
          "indexed": false,
          "internalType": "string",
          "name": "eventTag",
          "type": "string"
        },
        {
          "indexed": false,
          "internalType": "uint8",
          "name": "intensity",
          "type": "uint8"
        },
        {
          "indexed": false,
          "internalType": "uint8",
          "name": "sentiment",
          "type": "uint8"
        }
      ],
      "name": "WorldStateUpdated",
      "type": "event"
    },
    {
      "inputs": [
        {
          "internalType": "address",
          "name": "to",
          "type": "address"
        },
        {
          "internalType": "uint256",
          "name": "tokenId",
          "type": "uint256"
        }
      ],
      "name": "approve",
      "outputs": [],
      "stateMutability": "nonpayable",
      "type": "function"
    },
    {
      "inputs": [
        {
          "internalType": "address",
          "name": "",
          "type": "address"
        }
      ],
      "name": "authorizedOracles",
      "outputs": [
        {
          "internalType": "bool",
          "name": "",
          "type": "bool"
        }
      ],
      "stateMutability": "view",
      "type": "function"
    },
    {
      "inputs": [
        {
          "internalType": "address",
          "name": "owner",
          "type": "address"
        }
      ],
      "name": "balanceOf",
      "outputs": [
        {
          "internalType": "uint256",
          "name": "",
          "type": "uint256"
        }
      ],
      "stateMutability": "view",
      "type": "function"
    },
    {
      "inputs": [
        {
          "internalType": "enum DynamicWorldNFT.WorldCategory[]",
          "name": "categories",
          "type": "uint8[]"
        }
      ],
      "name": "batchMint",
      "outputs": [],
      "stateMutability": "payable",
      "type": "function"
    },
    {
      "inputs": [
        {
          "internalType": "uint256[]",
          "name": "tokenIds",
          "type": "uint256[]"
        },
        {
          "internalType": "uint8[]",
          "name": "intensities",
          "type": "uint8[]"
        },
        {
          "internalType": "uint8[]",
          "name": "sentiments",
          "type": "uint8[]"
        },
        {
          "internalType": "string[]",
          "name": "eventTags",
          "type": "string[]"
        },
        {
          "internalType": "string[]",
          "name": "dataPoints",
          "type": "string[]"
        }
      ],
      "name": "batchUpdateWorldState",
      "outputs": [],
      "stateMutability": "nonpayable",
      "type": "function"
    },
    {
      "inputs": [
        {
          "internalType": "uint256",
          "name": "tokenId",
          "type": "uint256"
        }
      ],
      "name": "getApproved",
      "outputs": [
        {
          "internalType": "address",
          "name": "",
          "type": "address"
        }
      ],
      "stateMutability": "view",
      "type": "function"
    },
    {
      "inputs": [
        {
          "internalType": "address",
          "name": "owner",
          "type": "address"
        },
        {
          "internalType": "address",
          "name": "operator",
          "type": "address"
        }
      ],
      "name": "isApprovedForAll",
      "outputs": [
        {
          "internalType": "bool",
          "name": "",
          "type": "bool"
        }
      ],
      "stateMutability": "view",
      "type": "function"
    },
    {
      "inputs": [],
      "name": "maxSupply",
      "outputs": [
        {
          "internalType": "uint256",
          "name": "",
          "type": "uint256"
        }
      ],
      "stateMutability": "view",
      "type": "function"
    },
    {
      "inputs": [
        {
          "internalType": "enum DynamicWorldNFT.WorldCategory",
          "name": "category",
          "type": "uint8"
        }
      ],
      "name": "mint",
      "outputs": [
        {
          "internalType": "uint256",
          "name": "",
          "type": "uint256"
        }
      ],
      "stateMutability": "payable",
      "type": "function"
    },
    {
      "inputs": [],
      "name": "mintPrice",
      "outputs": [
        {
          "internalType": "uint256",
          "name": "",
          "type": "uint256"
        }
      ],
      "stateMutability": "view",
      "type": "function"
    },
    {
      "inputs": [],
      "name": "mintingOpen",
      "outputs": [
        {
          "internalType": "bool",
          "name": "",
          "type": "bool"
        }
      ],
      "stateMutability": "view",
      "type": "function"
    },
    {
      "inputs": [],
      "name": "name",
      "outputs": [
        {
          "internalType": "string",
          "name": "",
          "type": "string"
        }
      ],
      "stateMutability": "view",
      "type": "function"
    },
    {
      "inputs": [],
      "name": "owner",
      "outputs": [
        {
          "internalType": "address",
          "name": "",
          "type": "address"
        }
      ],
      "stateMutability": "view",
      "type": "function"
    },
    {
      "inputs": [
        {
          "internalType": "uint256",
          "name": "tokenId",
          "type": "uint256"
        }
      ],
      "name": "ownerOf",
      "outputs": [
        {
          "internalType": "address",
          "name": "",
          "type": "address"
        }
      ],
      "stateMutability": "view",
      "type": "function"
    },
    {
      "inputs": [],
      "name": "renounceOwnership",
      "outputs": [],
      "stateMutability": "nonpayable",
      "type": "function"
    },
    {
      "inputs": [
        {
          "internalType": "address",
          "name": "from",
          "type": "address"
        },
        {
          "internalType": "address",
          "name": "to",
          "type": "address"
        },
        {
          "internalType": "uint256",
          "name": "tokenId",
          "type": "uint256"
        }
      ],
      "name": "safeTransferFrom",
      "outputs": [],
      "stateMutability": "nonpayable",
      "type": "function"
    },
    {
      "inputs": [
        {
          "internalType": "address",
          "name": "from",
          "type": "address"
        },
        {
          "internalType": "address",
          "name": "to",
          "type": "address"
        },
        {
          "internalType": "uint256",
          "name": "tokenId",
          "type": "uint256"
        },
        {
          "internalType": "bytes",
          "name": "data",
          "type": "bytes"
        }
      ],
      "name": "safeTransferFrom",
      "outputs": [],
      "stateMutability": "nonpayable",
      "type": "function"
    },
    {
      "inputs": [
        {
          "internalType": "address",
          "name": "operator",
          "type": "address"
        },
        {
          "internalType": "bool",
          "name": "approved",
          "type": "bool"
        }
      ],
      "name": "setApprovalForAll",
      "outputs": [],
      "stateMutability": "nonpayable",
      "type": "function"
    },
    {
      "inputs": [
        {
          "internalType": "uint256",
          "name": "_price",
          "type": "uint256"
        }
      ],
      "name": "setMintPrice",
      "outputs": [],
      "stateMutability": "nonpayable",
      "type": "function"
    },
    {
      "inputs": [
        {
          "internalType": "bool",
          "name": "_open",
          "type": "bool"
        }
      ],
      "name": "setMintingOpen",
      "outputs": [],
      "stateMutability": "nonpayable",
      "type": "function"
    },
    {
      "inputs": [
        {
          "internalType": "address",
          "name": "oracle",
          "type": "address"
        },
        {
          "internalType": "bool",
          "name": "status",
          "type": "bool"
        }
      ],
      "name": "setOracle",
      "outputs": [],
      "stateMutability": "nonpayable",
      "type": "function"
    },
    {
      "inputs": [
        {
          "internalType": "bytes4",
          "name": "interfaceId",
          "type": "bytes4"
        }
      ],
      "name": "supportsInterface",
      "outputs": [
        {
          "internalType": "bool",
          "name": "",
          "type": "bool"
        }
      ],
      "stateMutability": "view",
      "type": "function"
    },
    {
      "inputs": [],
      "name": "symbol",
      "outputs": [
        {
          "internalType": "string",
          "name": "",
          "type": "string"
        }
      ],
      "stateMutability": "view",
      "type": "function"
    },
    {
      "inputs": [
        {
          "internalType": "uint256",
          "name": "tokenId",
          "type": "uint256"
        }
      ],
      "name": "tokenURI",
      "outputs": [
        {
          "internalType": "string",
          "name": "",
          "type": "string"
        }
      ],
      "stateMutability": "view",
      "type": "function"
    },
    {
      "inputs": [],
      "name": "totalSupply",
      "outputs": [
        {
          "internalType": "uint256",
          "name": "",
          "type": "uint256"
        }
      ],
      "stateMutability": "view",
      "type": "function"
    },
    {
      "inputs": [
        {
          "internalType": "address",
          "name": "from",
          "type": "address"
        },
        {
          "internalType": "address",
          "name": "to",
          "type": "address"
        },
        {
          "internalType": "uint256",
          "name": "tokenId",
          "type": "uint256"
        }
      ],
      "name": "transferFrom",
      "outputs": [],
      "stateMutability": "nonpayable",
      "type": "function"
    },
    {
      "inputs": [
        {
          "internalType": "address",
          "name": "newOwner",
          "type": "address"
        }
      ],
      "name": "transferOwnership",
      "outputs": [],
      "stateMutability": "nonpayable",
      "type": "function"
    },
    {
      "inputs": [
        {
          "internalType": "uint256",
          "name": "tokenId",
          "type": "uint256"
        },
        {
          "internalType": "uint8",
          "name": "intensity",
          "type": "uint8"
        },
        {
          "internalType": "uint8",
          "name": "sentiment",
          "type": "uint8"
        },
        {
          "internalType": "string",
          "name": "eventTag",
          "type": "string"
        },
        {
          "internalType": "string",
          "name": "dataPoint",
          "type": "string"
        }
      ],
      "name": "updateWorldState",
      "outputs": [],
      "stateMutability": "nonpayable",
      "type": "function"
    },
    {
      "inputs": [],
      "name": "withdraw",
      "outputs": [],
      "stateMutability": "nonpayable",
      "type": "function"
    },
    {
      "inputs": [
        {
          "internalType": "uint256",
          "name": "",
          "type": "uint256"
        }
      ],
      "name": "worldStates",
      "outputs": [
        {
          "internalType": "enum DynamicWorldNFT.WorldCategory",
          "name": "category",
          "type": "uint8"
        },
        {
          "internalType": "uint8",
          "name": "intensity",
          "type": "uint8"
        },
        {
          "internalType": "uint8",
          "name": "sentimentScore",
          "type": "uint8"
        },
        {
          "internalType": "string",
          "name": "eventTag",
          "type": "string"
        },
        {
          "internalType": "string",
          "name": "dataPoint",
          "type": "string"
        },
        {
          "internalType": "uint256",
          "name": "lastUpdated",
          "type": "uint256"
        },
        {
          "internalType": "uint256",
          "name": "updateCount",
          "type": "uint256"
        }
      ],
      "stateMutability": "view",
      "type": "function"
    }
  ],
  "bytecode": "0x6080604052346103a957604080519081016001600160401b038111828210176102bf5760409081526011825270111e5b985b5a58c815dbdc9b1908139195607a1b602083015280519081016001600160401b038111828210176102bf5760405260058152641115d3919560da1b602082015281516001600160401b0381116102bf575f54600181811c9116801561039f575b60208210146102a157601f811161033d575b50602092601f82116001146102de57928192935f926102d3575b50508160011b915f199060031b1c1916175f555b80516001600160401b0381116102bf57600154600181811c911680156102b5575b60208210146102a157601f811161023e575b50602091601f82116001146101de579181925f926101d3575b50508160011b915f199060031b1c1916176001555b33156101c05760078054336001600160a01b03198216811790925560405191906001600160a01b03167f8be0079c531659141344cd1fd0a4f28419497f9722a3daafe3b4186f6b6457e05f80a366038d7ea4c68000600b55612710600c55600160ff19600d541617600d55335f52600a60205260405f20600160ff19825416179055613fcb90816103ae8239f35b631e4fbdf760e01b5f525f60045260245ffd5b015190505f8061011d565b601f1982169260015f52805f20915f5b8581106102265750836001951061020e575b505050811b01600155610132565b01515f1960f88460031b161c191690555f8080610200565b919260206001819286850151815501940192016101ee565b60015f527fb10e2d527612073b26eecdfd717e6a320cf44b4afac2b0732d9fcbe2b7fa0cf6601f830160051c81019160208410610297575b601f0160051c01905b81811061028c5750610104565b5f815560010161027f565b9091508190610276565b634e487b7160e01b5f52602260045260245ffd5b90607f16906100f2565b634e487b7160e01b5f52604160045260245ffd5b015190505f806100bd565b601f198216935f8052805f20915f5b868110610325575083600195961061030d575b505050811b015f556100d1565b01515f1960f88460031b161c191690555f8080610300565b919260206001819286850151815501940192016102ed565b5f80527f290decd9548b62a8d60345a988386fc84ba6bc95484008f6362f93160ef3e563601f830160051c81019160208410610395575b601f0160051c01905b81811061038a57506100a3565b5f815560010161037d565b9091508190610374565b90607f1690610091565b5f80fdfe6080806040526004361015610012575f80fd5b5f3560e01c90816301ffc9a714612aff5750806306fdde0314612a5d578063081812fc14612a21578063095ea7b31461293757806318160ddd1461291a5780631eb6db2b146125eb57806323b872dd146125d45780633ccfd60b1461256057806342842e0e146125315780634f78271d1461249057806361c992a3146124535780636352211e1461242357806365360843146123a65780636817c76c146123895780636ecd23061461204e57806370a0823114611ffd578063715018a614611fa25780638da5cb5b14611f7a5780638f4bb49714611f5857806395d89b4114611e7a578063a22cb46514611dc1578063b033caf114611d89578063b88d4fde14611cf4578063c3bc6bb014611938578063c87b56dd14610707578063d5abeb01146106ea578063d910a00d14610268578063e985e9c514610211578063f2fde38b1461018b5763f4a0a52814610166575f80fd5b346101875760203660031901126101875761017f6131b9565b600435600b55005b5f80fd5b34610187576020366003190112610187576101a4612ba8565b6101ac6131b9565b6001600160a01b031680156101fe57600780546001600160a01b0319811683179091556001600160a01b03167f8be0079c531659141344cd1fd0a4f28419497f9722a3daafe3b4186f6b6457e05f80a3005b631e4fbdf760e01b5f525f60045260245ffd5b346101875760403660031901126101875761022a612ba8565b610232612bbe565b9060018060a01b03165f52600560205260405f209060018060a01b03165f52602052602060ff60405f2054166040519015158152f35b346101875760a0366003190112610187576004356001600160401b03811161018757610298903690600401612d86565b6024356001600160401b038111610187576102b7903690600401612d86565b926044356001600160401b038111610187576102d7903690600401612d86565b9490926064356001600160401b038111610187576102f9903690600401612d86565b9390946084356001600160401b0381116101875761031b903690600401612d86565b979097335f52600a60205260ff60405f20541680156106d6575b61033e90612db6565b858214806106cd575b806106c4575b806106bb575b1561067e575f5b82811061036357005b858b888588610393610376878484613112565b355f908152600260205260409020546001600160a01b0316151590565b1561067157610404936103e66103d06103cb896103ec976103b9826103cb998199613112565b355f52600960205260405f209a613112565b613136565b875461ff00191660089190911b61ff0016178755565b89613112565b825462ff0000191660109190911b62ff000016178255565b61040f828a8c613144565b60018301916001600160401b0382116105e357610436826104308554612c3b565b85612e3d565b5f90601f83116001146105f75761046492915f9183610570575b50508160011b915f199060031b1c19161790565b90555b61047282848d613144565b60028301916001600160401b0382116105e357610493826104308554612c3b565b5f90601f831160011461057b5791806104c59260049695945f926105705750508160011b915f199060031b1c19161790565b90555b42600382015501908154916001830180931161055c577f165220a34b5b7d8919a0fef91b5e65f465e0f483461a993d4a89a6d008e4ac9d89898f898f958f88610552948f6103cb8f61053760019f6103cb9761053088809561053f9882956105459e55613112565b359f613144565b9b909a613112565b94613112565b9060405194859485612e8c565b0390a25b0161035a565b634e487b7160e01b5f52601160045260245ffd5b013590505f80610450565b601f19831691845f5260205f20925f5b8181106105cb5750916001939185600498979694106105b2575b505050811b0190556104c8565b01355f19600384901b60f8161c191690555f80806105a5565b9193602060018192878701358155019501920161058b565b634e487b7160e01b5f52604160045260245ffd5b601f9e9d9c9b9a99989796959e19831691845f5260205f20925f5b8181106106595750909e9f969798999a9b9c9d9e8460019594939210610640575b505050811b019055610467565b01355f19600384901b60f8161c191690558f8080610633565b83830135855560019094019360209283019201610612565b5050505050600190610556565b60405162461bcd60e51b8152602060048201526015602482015274082e4e4c2f240d8cadccee8d040dad2e6dac2e8c6d605b1b6044820152606490fd5b50808214610353565b5086821461034d565b50898214610347565b506007546001600160a01b03163314610335565b34610187575f366003190112610187576020600c54604051908152f35b34610187576020366003190112610187576004355f8181526002602052604090205461073d906001600160a01b03161515612dfa565b805f52600960205260405f2060405161075581612c73565b81549061076560ff8316826130d3565b6020810160ff8360081c16815260ff604083019360101c16835261078b60018501612caf565b6060830152600461079e60028601612caf565b9460808401958652600381015460a0850152015460c08301526107c0826138a9565b946107ca83613a32565b956107d484613bdd565b8451600681101561185e576107e890613d63565b9060ff855116906101048202828104610104148315171561055c57600b601460209460ab86610a4d95604284115f146118cd57601a61083b610835606461082d613bb8565b945b04613603565b95613603565b916040519a8b967f3c7265637420783d2237302220793d22323932222077696474683d2232363022828901527f206865696768743d2238222072783d2234222066696c6c3d22726762612832356040890152701a96191a9a96191a9a961817189491179f60791b60608901527f3c7265637420783d2237302220793d22323932222077696474683d22000000006071890152805191829101608d89015e8601907f22206865696768743d2238222072783d2234222066696c6c3d22000000000000608d830152608d815186830193818560a783015e0101906211179f60e91b848301527f3c7465787420783d2237302220793d223331362220666f6e742d66616d696c79601d8301527f3d226d6f6e6f73706163652220666f6e742d73697a653d2239222066696c6c3d603d8301527f22776869746522206f7061636974793d22302e35223e494e54454e534954593c605d8301526517ba32bc3a1f60d11b607d8301527f3c7465787420783d223333302220793d223331362220666f6e742d66616d696c60838301527f793d226d6f6e6f73706163652220666f6e742d73697a653d2239222066696c6c60a3830152611e9160f11b60c383015251809260c583015e0101907311103a32bc3a16b0b731b437b91e9132b732111f60611b8483015280519283910160bf83015e01016a179898181e17ba32bc3a1f60a91b838201520301601419810185520183612c8e565b875160ff1660428111156118725750604051610a6a604082612c8e565b601081526f0604060406660e0f040466060cccc70760831b6020820152505b610a9285613603565b906060880151928a518951600681101561185e57610aaf90613770565b9460c08b0151610abe90613603565b966040519e8f9960208b017f3c73766720786d6c6e733d22687474703a2f2f7777772e77332e6f72672f3230905260408b017f30302f737667222076696577426f783d22302030203430302034303022207769905260608b017f6474683d2234303022206865696768743d22343030223e000000000000000000905260778b01651e3232b3399f60d11b9052607d8b017f3c6c696e6561724772616469656e742069643d226267222078313d22302522209052609d8b017f79313d223025222078323d2231303025222079323d2231303025223e00000000905260b98b017f3c73746f70206f66667365743d22302522207374796c653d2273746f702d636f905260d98b01633637b91d60e11b90528051602081920160dd8d015e721db9ba37b816b7b830b1b4ba3c9d189110179f60691b60dd918c01918201527f3c73746f70206f66667365743d223130302522207374796c653d2273746f702d60f08201526531b7b637b91d60d11b610110820152815191829060200161011683015e721db9ba37b816b7b830b1b4ba3c9d189110179f60691b6101169290910191820152701e17b634b732b0b923b930b234b2b73a1f60791b6101298201527f3c66696c7465722069643d22676c6f77223e3c6665476175737369616e426c7561013a8201527f7220737464446576696174696f6e3d22332220726573756c743d22626c75722261015a82015261179f60f11b61017a8201527f3c6665436f6d706f7369746520696e3d22536f7572636547726170686963222061017c8201527f696e323d22626c757222206f70657261746f723d226f766572222f3e3c2f666961019c82015264363a32b91f60d91b6101bc820152661e17b232b3399f60c91b6101c18201527f3c726563742077696474683d2234303022206865696768743d223430302220666101c88201527f696c6c3d2275726c2823626729222072783d223230222f3e00000000000000006101e88201527f3c7265637420783d2231302220793d223130222077696474683d2233383022206102008201527f6865696768743d22333830222066696c6c3d226e6f6e6522207374726f6b653d610220820152601160f91b610240820152855160208701979160dd81019082908a90610241015e0160390161012b81017f22207374726f6b652d77696474683d2232222072783d22313622206f706163699052693a3c9e9118171b11179f60b11b61014b82015261015581017f3c7465787420783d223230302220793d2235352220666f6e742d66616d696c79905261017581017f3d226d6f6e6f73706163652220666f6e742d73697a653d223133222066696c6c9052611e9160f11b610195820152865190818961019783015e0161012b01606c81017f2220746578742d616e63686f723d226d6964646c6522206f7061636974793d229052608c81017f302e38223e44594e414d494320574f524c44204e46543c2f746578743e000000905260a981017f3c7465787420783d223230302220793d2238302220666f6e742d66616d696c79905260c981017f3d226d6f6e6f73706163652220666f6e742d73697a653d223230222066696c6c905260e981017f3d2277686974652220746578742d616e63686f723d226d6964646c652220666f9052716e742d7765696768743d22626f6c64223e2360701b6101098201528151602081930161011b83015e01606c0160af8101661e17ba32bc3a1f60c91b905260b681017f3c7465787420783d223230302220793d223137352220666f6e742d73697a653d905260d681017f2238302220746578742d616e63686f723d226d6964646c65223e00000000000090528151602081930160f083015e0160af0160418101661e17ba32bc3a1f60c91b9052604881017f3c7265637420783d2236302220793d22323030222077696474683d22323830229052606881017f206865696768743d223336222072783d2238222066696c6c3d2200000000000090528451908187608283015e0160410170111037b830b1b4ba3c9e9118171911179f60791b6041820152605281017f3c7465787420783d223230302220793d223232332220666f6e742d66616d696c9052607281017f793d226d6f6e6f73706163652220666f6e742d73697a653d223134222066696c905262361e9160e91b60928201528451908187609583015e01604101605481017f2220746578742d616e63686f723d226d6964646c652220666f6e742d77656967905269343a1e913137b632111f60b11b607482015281516020819301607e83015e01605401602a8101661e17ba32bc3a1f60c91b9052603181017f3c7465787420783d223230302220793d223236352220666f6e742d66616d696c9052605181017f793d226d6f6e6f73706163652220666f6e742d73697a653d223131222066696c9052607181017f6c3d2277686974652220746578742d616e63686f723d226d6964646c6522206f90526c3830b1b4ba3c9e9118171c911f60991b609182015281516020819301609e83015e01602a0160748101661e17ba32bc3a1f60c91b905281516020819301607b83015e0160740190600782017f3c7265637420783d223134302220793d22333430222077696474683d223132309052602782017f22206865696768743d223234222072783d223132222066696c6c3d22000000009052518092604383015e0160070170111037b830b1b4ba3c9e9118171991179f60791b603c820152604d81017f3c7465787420783d223230302220793d223335372220666f6e742d66616d696c9052606d81017f793d226d6f6e6f73706163652220666f6e742d73697a653d223131222066696c9052608d81017f6c3d2277686974652220746578742d616e63686f723d226d6964646c65223e0090528151602081930160ac83015e01603c0160708101661e17ba32bc3a1f60c91b9052607781017f3c7465787420783d223230302220793d223339302220666f6e742d66616d696c9052609781017f793d226d6f6e6f73706163652220666f6e742d73697a653d2239222066696c6c905260b781017f3d2277686974652220746578742d616e63686f723d226d6964646c6522206f70905273030b1b4ba3c9e9118171a911f22ab27a62b22a2160651b60d78201528151602081930160eb83015e01607001607b81016c102a24a6a2a99e17ba32bc3a1f60991b905260888101651e17b9bb339f60d11b905203607b01600c19810187526013016113fc9087612c8e565b61140590613603565b938251600681101561185e5761141d61142391613770565b96613e60565b938351600681101561185e5761143890613770565b926060850151905160ff1661144c90613603565b915160ff1661145a90613603565b92519360c086015161146b90613603565b9560a0015161147990613603565b96604051998a9960208b017f7b226e616d65223a2244796e616d696320576f726c642023000000000000000090528051602081920160388d015e61088b60f21b6038918c01918201527f226465736372697074696f6e223a2241206c6976696e67204e46542074686174603a8201527f2065766f6c7665732077697468207265616c2d776f726c6420646174612e2043605a82015268030ba32b3b7b93c9d160bd1b607a8201528151918290602001608383015e01603801620b888b60ea1b604b820152604e81017f22696d616765223a22646174613a696d6167652f7376672b786d6c3b626173659052606e8101620d8d0b60ea1b905281516020819301607183015e01604b0161088b60f21b60268201526d2261747472696275746573223a5b60901b6028820152603681017f7b2274726169745f74797065223a2243617465676f7279222c2276616c7565229052611d1160f11b605682015281516020819301605883015e0160260162089f4b60ea1b6032820152603581017f7b2274726169745f74797065223a224576656e74222c2276616c7565223a2200905281516020819301605483015e0160320162089f4b60ea1b6022820152602581017f7b2274726169745f74797065223a22496e74656e73697479222c2276616c7565905261111d60f11b604582015281516020819301604783015e0160220160258101611f4b60f21b9052602781017f7b2274726169745f74797065223a2253656e74696d656e74222c2276616c7565905261111d60f11b604782015281516020819301604983015e0160250160248101611f4b60f21b9052602681017f7b2274726169745f74797065223a224461746120506f696e74222c2276616c7590526332911d1160e11b604682015281516020819301604a83015e0160240162089f4b60ea1b6026820152602981017f7b2274726169745f74797065223a2255706461746520436f756e74222c227661905264363ab2911d60d91b604982015281516020819301604e83015e0160260160288101611f4b60f21b9052602a81017f7b2274726169745f74797065223a224c6173742055706461746564222c227661905264363ab2911d60d91b604a82015281516020819301604f83015e0160280160278101607d60f81b905260288101615d7d60f01b905203602701601c19810182526003016117e59082612c8e565b6117ee90613e60565b6040518091602082017f646174613a6170706c69636174696f6e2f6a736f6e3b6261736536342c000000905280516020819201603d84015e8101603d81015f905203603d01601f19810182526118449082612c8e565b6040518091602082526020820161185a91612b84565b0390f35b634e487b7160e01b5f52602160045260245ffd5b602110156118a9576f0302030203330707820236666616130360841b602060405161189e604082612c8e565b601081520152610a89565b6f0c080c080ccc1c1e0808d9998d0d0d0d60821b602060405161189e604082612c8e565b602184111561190857601a61083b61083560646040516118ee604082612c8e565b60078152660236666616130360cc1b878201525b9461082f565b601a61083b6108356064604051611920604082612c8e565b60078152660466868cccc70760cb1b87820152611902565b6020366003190112610187576004356001600160401b03811161018757611963903690600401612d86565b80151580611ce9575b15611cb357600b548181029080820483149015171561055c5761199190341015613094565b60085481810180911161055c57600c5410611c79575f5b8181106119b157005b600854906001820180831161055c576008556119cd82336131e0565b6119d8818486613112565b356006811015610187576119ed828587613112565b35600681101561018757611a00906133c6565b611a1660405192611a1084612c73565b836130d3565b602082016032815260408301916032835260608401908152611a366130df565b906080850191825260a085019242845260c08601945f8652885f52600960205260405f20965190600682101561185e5787549251905160089190911b61ff001660ff9290921662ffffff19909316929092171760109190911b62ff00001617855551805160018601916001600160401b0382116105e357611abb826104308554612c3b565b602090601f8311600114611c1657611ae992915f9183611ba35750508160011b915f199060031b1c19161790565b90555b51805160028501916001600160401b0382116105e357611b10826104308554612c3b565b602090601f8311600114611bae579180611b44926004979695945f92611ba35750508160011b915f199060031b1c19161790565b90555b51600384015551910155611b5c818486613112565b3591600683101561018757600192611b776040518092612d4f565b7f5716925f2a990bb51e5354134a606547c86dc787be1a2729eef575fd0c2bea1e60203392a3016119a8565b015190508c80610450565b90601f19831691845f52815f20925f5b818110611bfe57509160019391856004999897969410611be6575b505050811b019055611b47565b01515f1960f88460031b161c191690558b8080611bd9565b82840151855560019094019360209384019301611bbe565b90601f19831691845f52815f20925f5b818110611c615750908460019594939210611c49575b505050811b019055611aec565b01515f1960f88460031b161c191690558b8080611c3c565b82840151855560019094019360209384019301611c26565b60405162461bcd60e51b815260206004820152601260248201527145786365656473206d617820737570706c7960701b6044820152606490fd5b60405162461bcd60e51b815260206004820152600e60248201526d312d313020617420612074696d6560901b6044820152606490fd5b50600a81111561196c565b3461018757608036600319011261018757611d0d612ba8565b611d15612bbe565b90604435606435926001600160401b038411610187573660238501121561018757836004013592611d4584612d6b565b93611d536040519586612c8e565b8085523660248288010111610187576020815f926024611d8799018389013786010152611d81838383612ec5565b33613506565b005b346101875760203660031901126101875760043580151580910361018757611daf6131b9565b60ff8019600d5416911617600d555f80f35b3461018757604036600319011261018757611dda612ba8565b611de2612d5c565b903315611e67576001600160a01b0316908115611e5457335f52600560205260405f20825f52602052611e248160405f209060ff801983541691151516179055565b60405190151581527f17307eab39ab6107e8899845ad3d59bd9653f200f220920489ca2b5937696c3160203392a3005b50630b61174360e31b5f5260045260245ffd5b63a9fbf51f60e01b5f525f60045260245ffd5b34610187575f366003190112610187576040515f600154611e9a81612c3b565b8084529060018116908115611f345750600114611ed6575b61185a83611ec281850382612c8e565b604051918291602083526020830190612b84565b60015f9081527fb10e2d527612073b26eecdfd717e6a320cf44b4afac2b0732d9fcbe2b7fa0cf6939250905b808210611f1a57509091508101602001611ec2611eb2565b919260018160209254838588010152019101909291611f02565b60ff191660208086019190915291151560051b84019091019150611ec29050611eb2565b34610187575f36600319011261018757602060ff600d54166040519015158152f35b34610187575f366003190112610187576007546040516001600160a01b039091168152602090f35b34610187575f36600319011261018757611fba6131b9565b600780546001600160a01b031981169091555f906001600160a01b03167f8be0079c531659141344cd1fd0a4f28419497f9722a3daafe3b4186f6b6457e08280a3005b34610187576020366003190112610187576001600160a01b0361201e612ba8565b16801561203b575f526003602052602060405f2054604051908152f35b6322718ad960e21b5f525f60045260245ffd5b60203660031901126101875760043560068110156101875760ff600d5416156123505761207f600b54341015613094565b60085490600c54821015612316576001820180831161055c576008556120a582336131e0565b6120ae816133c6565b91604051916120bc83612c73565b6120c681846130d3565b602083019260328452604081019360328552606082019586526120e76130df565b956080830196875260a083019142835260c08401965f8852865f52600960205260405f20945190600682101561185e5785549251905160089190911b61ff001660ff9290921662ffffff19909316929092171760109190911b62ff00001617835551805160018401916001600160401b0382116105e35761216c826104308554612c3b565b602090601f83116001146122b35761219a92915f91836122a85750508160011b915f199060031b1c19161790565b90555b6002820195519586516001600160401b0381116105e3576020976121c5826104308554612c3b565b8890601f8311600114612240578260049593899a95936121f9935f92611ba35750508160011b915f199060031b1c19161790565b90555b516003840155519101556122136040518092612d4f565b7f5716925f2a990bb51e5354134a606547c86dc787be1a2729eef575fd0c2bea1e843392a3604051908152f35b90601f19831691845f52815f20925f5b8181106122915750926001928592600498968c9d989610612279575b505050811b0190556121fc565b01515f1960f88460031b161c191690558b808061226c565b92938c600181928786015181550195019301612250565b015190508a80610450565b90601f19831691845f52815f20925f5b8181106122fe57509084600195949392106122e6575b505050811b01905561219d565b01515f1960f88460031b161c191690558980806122d9565b929360206001819287860151815501950193016122c3565b60405162461bcd60e51b815260206004820152601260248201527113585e081cdd5c1c1b1e481c995858da195960721b6044820152606490fd5b60405162461bcd60e51b8152602060048201526011602482015270135a5b9d1a5b99c81a5cc818db1bdcd959607a1b6044820152606490fd5b34610187575f366003190112610187576020600b54604051908152f35b34610187576040366003190112610187576123bf612ba8565b7f82a8fb1e779ea45ad427cc612e47087f5386a567e49dce488185e40646fa48d560206123ea612d5c565b926123f36131b9565b6001600160a01b03165f818152600a835260409020805460ff191660ff86151516179055926040519015158152a2005b34610187576020366003190112610187576020612441600435613185565b6040516001600160a01b039091168152f35b34610187576020366003190112610187576001600160a01b03612474612ba8565b165f52600a602052602060ff60405f2054166040519015158152f35b34610187576020366003190112610187576004355f52600960205260ff60405f208054906124c060018201612caf565b6125226124cf60028401612caf565b612514600460038601549501549360405197876124ef8a83819b16612d4f565b818160081c1660208a015260101c16604088015260e0606088015260e0870190612b84565b908582036080870152612b84565b9160a084015260c08301520390f35b3461018757611d8761254236612c01565b9060405192612552602085612c8e565b5f8452611d81838383612ec5565b34610187575f366003190112610187576125786131b9565b5f80808060018060a01b036007541647905af1612593613065565b501561259b57005b60405162461bcd60e51b815260206004820152601160248201527015da5d1a191c985dd85b0819985a5b1959607a1b6044820152606490fd5b3461018757611d876125e536612c01565b91612ec5565b346101875760a03660031901126101875760043560243560ff8116808203610187576044359060ff821691828103610187576064356001600160401b0381116101875761263c903690600401612bd4565b939092608435916001600160401b038311610187576126616064933690600401612bd4565b939092335f52600a60205260ff60405f2054168015612906575b61268490612db6565b5f8a8152600260205260409020546126a6906001600160a01b03161515612dfa565b111590816128fa575b50156128be575f878152600960205260409020805462ff0000601086901b1662ffff001990911661ff0060088a901b161717815591600183016001600160401b0387116105e35761270a876127048354612c3b565b83612e3d565b5f87601f811160011461285b5780612736925f91612850575b508160011b915f199060031b1c19161790565b90555b60028301916001600160401b0382116105e35761275a826104308554612c3b565b5f90601f83116001146127e857918061278c9260049695945f926127dd5750508160011b915f199060031b1c19161790565b90555b42600382015501908154946001860180961161055c577f165220a34b5b7d8919a0fef91b5e65f465e0f483461a993d4a89a6d008e4ac9d956127d8935560405194859485612e8c565b0390a2005b013590508b80610450565b601f19831691845f5260205f20925f5b81811061283857509160019391856004989796941061281f575b505050811b01905561278f565b01355f19600384901b60f8161c191690558a8080612812565b919360206001819287870135815501950192016127f8565b90508801358c612723565b50601f19881690825f528860205f20925f5b8181106128a357501061288a575b5050600187811b019055612739565b8701355f1960038a901b60f8161c19169055898061287b565b8a84013585556001909401936020938401938c93500161286d565b60405162461bcd60e51b8152602060048201526014602482015273056616c756573206d75737420626520302d3130360641b6044820152606490fd5b606491501115886126af565b506007546001600160a01b0316331461267b565b34610187575f366003190112610187576020600854604051908152f35b3461018757604036600319011261018757612950612ba8565b60243561295c81613185565b33151580612a0e575b806129e1575b6129ce5781906001600160a01b0384811691167f8c5be1e5ebec7d5bd14f71427d1e84f3dd0314c0f7b2291e5b200ac8c7c3b9255f80a45f90815260046020526040902080546001600160a01b0319166001600160a01b03909216919091179055005b63a9fbf51f60e01b5f523360045260245ffd5b506001600160a01b0381165f90815260056020908152604080832033845290915290205460ff161561296b565b506001600160a01b038116331415612965565b3461018757602036600319011261018757600435612a3e81613185565b505f526004602052602060018060a01b0360405f205416604051908152f35b34610187575f366003190112610187576040515f8054612a7c81612c3b565b8084529060018116908115611f345750600114612aa35761185a83611ec281850382612c8e565b5f8080527f290decd9548b62a8d60345a988386fc84ba6bc95484008f6362f93160ef3e563939250905b808210612ae557509091508101602001611ec2611eb2565b919260018160209254838588010152019101909291612acd565b34610187576020366003190112610187576004359063ffffffff60e01b821680920361018757602091632483248360e11b8114908115612b41575b5015158152f35b6380ac58cd60e01b811491508115612b73575b8115612b62575b5083612b3a565b6301ffc9a760e01b14905083612b5b565b635b5e139f60e01b81149150612b54565b805180835260209291819084018484015e5f828201840152601f01601f1916010190565b600435906001600160a01b038216820361018757565b602435906001600160a01b038216820361018757565b9181601f84011215610187578235916001600160401b038311610187576020838186019501011161018757565b6060906003190112610187576004356001600160a01b038116810361018757906024356001600160a01b0381168103610187579060443590565b90600182811c92168015612c69575b6020831014612c5557565b634e487b7160e01b5f52602260045260245ffd5b91607f1691612c4a565b60e081019081106001600160401b038211176105e357604052565b90601f801991011681019081106001600160401b038211176105e357604052565b9060405191825f825492612cc284612c3b565b8084529360018116908115612d2d5750600114612ce9575b50612ce792500383612c8e565b565b90505f9291925260205f20905f915b818310612d11575050906020612ce7928201015f612cda565b6020919350806001915483858901015201910190918492612cf8565b905060209250612ce794915060ff191682840152151560051b8201015f612cda565b90600682101561185e5752565b60243590811515820361018757565b6001600160401b0381116105e357601f01601f191660200190565b9181601f84011215610187578235916001600160401b038311610187576020808501948460051b01011161018757565b15612dbd57565b60405162461bcd60e51b81526020600482015260156024820152744e6f7420617574686f72697a6564206f7261636c6560581b6044820152606490fd5b15612e0157565b60405162461bcd60e51b8152602060048201526014602482015273151bdad95b88191bd95cc81b9bdd08195e1a5cdd60621b6044820152606490fd5b601f8211612e4a57505050565b5f5260205f20906020601f840160051c83019310612e82575b601f0160051c01905b818110612e77575050565b5f8155600101612e6c565b9091508190612e63565b92949360ff6080846040958395606089528160608a0152838901375f828289010152601f80199101168601019616602085015216910152565b6001600160a01b0390911691908215613052575f828152600260205260409020546001600160a01b031692829033151580612fbd575b5084612f8a575b805f52600360205260405f2060018154019055815f52600260205260405f20816bffffffffffffffffffffffff60a01b825416179055847fddf252ad1be2c89b69c2b068fc378daa952ba7f163c4a11628f55a4df523b3ef5f80a46001600160a01b0316808303612f7257505050565b6364283d7b60e01b5f5260045260245260445260645ffd5b5f82815260046020526040902080546001600160a01b0319169055845f52600360205260405f205f198154019055612f02565b90915080613001575b15612fd35782905f612efb565b8284612feb57637e27328960e01b5f5260045260245ffd5b63177e802f60e01b5f523360045260245260445ffd5b503384148015613030575b80612fc657505f838152600460205260409020546001600160a01b03163314612fc6565b505f84815260056020908152604080832033845290915290205460ff1661300c565b633250574960e11b5f525f60045260245ffd5b3d1561308f573d9061307682612d6b565b916130846040519384612c8e565b82523d5f602084013e565b606090565b1561309b57565b60405162461bcd60e51b815260206004820152601060248201526f092dce6eaccccd2c6d2cadce8408aa8960831b6044820152606490fd5b600682101561185e5752565b604051906130ee604083612c8e565b601582527420bbb0b4ba34b733903634bb32903230ba3097171760591b6020830152565b91908110156131225760051b0190565b634e487b7160e01b5f52603260045260245ffd5b3560ff811681036101875790565b91908110156131225760051b81013590601e19813603018212156101875701908135916001600160401b038311610187576020018236038113610187579190565b5f818152600260205260409020546001600160a01b03169081156131a7575090565b637e27328960e01b5f5260045260245ffd5b6007546001600160a01b031633036131cd57565b63118cdaa760e01b5f523360045260245ffd5b90602090604051906131f28383612c8e565b5f82526001600160a01b038416938415613052575f8281526002855260409020546001600160a01b03168015159081613395575b865f526003865260405f2060018154019055835f526002865260405f20876bffffffffffffffffffffffff60a01b8254161790558387827fddf252ad1be2c89b69c2b068fc378daa952ba7f163c4a11628f55a4df523b3ef5f80a450613382573b613292575b50505050565b916132cf91819495936040519384928392630a85bd0160e11b84523360048501525f60248501526044840152608060648401526084830190612b84565b03815f885af15f9181613342575b5061330b5750506132ec613065565b80519190826133085783633250574960e11b5f5260045260245ffd5b01fd5b909291506001600160e01b03191663757a42ff60e11b0161333057505f80808061328c565b633250574960e11b5f5260045260245ffd5b9091508381813d831161337b575b61335a8183612c8e565b8101031261018757516001600160e01b03198116810361018757905f6132dd565b503d613350565b6339e3563760e11b5f525f60045260245ffd5b5f8481526004602052604080822080546001600160a01b031916905582825260038852902080545f19019055613226565b600681101561185e5780156134d357600181146134a55760028114613479576003811461344c5760041461341f57604051613402604082612c8e565b600d81526c2a32b1b410233937b73a34b2b960991b602082015290565b60405161342d604082612c8e565b600f81526e1219585b1d1a0814d95b9d1a5b995b608a1b602082015290565b5060405161345b604082612c8e565b600e81526d29b830b1b29022bc383637b932b960911b602082015290565b50604051613488604082612c8e565b600d81526c576f726c64204166666169727360981b602082015290565b506040516134b4604082612c8e565b600f81526e26b0b935b2ba1027b139b2b93b32b960891b602082015290565b506040516134e2604082612c8e565b601481527308ed8dec4c2d84086d8d2dac2e8ca40aec2e8c6d60631b602082015290565b823b613514575b5050505050565b604051630a85bd0160e11b81526001600160a01b039182166004820152918116602483015260448201939093526080606482015291169160209082908190613560906084830190612b84565b03815f865af15f91816135be575b5061359c575061357c613065565b805190816135975782633250574960e11b5f5260045260245ffd5b602001fd5b6001600160e01b03191663757a42ff60e11b0161333057505f8080808061350d565b9091506020813d6020116135fb575b816135da60209383612c8e565b8101031261018757516001600160e01b03198116810361018757905f61356e565b3d91506135cd565b805f9172184f03e93ff9f4daa797ed6e38ed64bf6a1f0160401b82101561374d575b806d04ee2d6d415b85acef8100000000600a921015613732575b662386f26fc1000081101561371e575b6305f5e10081101561370d575b6127108110156136fe575b60648110156136f0575b10156136e5575b600a6021600184019361368a85612d6b565b946136986040519687612c8e565b8086526136a7601f1991612d6b565b013660208701378401015b5f1901916f181899199a1a9b1b9c1cb0b131b232b360811b8282061a83530480156136e057600a90916136b2565b505090565b600190910190613678565b606460029104930192613671565b61271060049104930192613667565b6305f5e1006008910493019261365c565b662386f26fc100006010910493019261364f565b6d04ee2d6d415b85acef81000000006020910493019261363f565b506040915072184f03e93ff9f4daa797ed6e38ed64bf6a1f0160401b8104613625565b600681101561185e57801561385e5760018114613839576002811461380e57600381146137ea576004146137c6576040516137ac604082612c8e565b600a815269544543484e4f4c4f475960b01b602082015290565b6040516137d4604082612c8e565b60068152650908a8298a8960d31b602082015290565b506040516137f9604082612c8e565b6005815264535041434560d81b602082015290565b5060405161381d604082612c8e565b600c81526b11d153d413d312551250d05360a21b602082015290565b50604051613848604082612c8e565b600681526513505492d15560d21b602082015290565b5060405161386d604082612c8e565b6007815266434c494d41544560c81b602082015290565b60405190613893604083612c8e565b60078252662330613261316160c81b6020830152565b8051600681101561185e57156139f1578051600681101561185e57600114613996578051600681101561185e57600214613970578051600681101561185e5760031461394a5751600681101561185e576004146139255760405161390e604082612c8e565b60078152662330613061316160c81b602082015290565b604051613933604082612c8e565b60078152662330613161306160c81b602082015290565b50604051613959604082612c8e565b60078152660233035303531360cc1b602082015290565b5060405161397f604082612c8e565b60078152662331613061306160c81b602082015290565b60ff6040603292015116115f146139cc576040516139b5604082612c8e565b60078152662330613161326160c81b602082015290565b6040516139da604082612c8e565b60078152662331613061326160c81b602082015290565b60ff6040603292015116115f14613a0d57613a0a613884565b90565b604051613a1b604082612c8e565b60078152662332613061306160c81b602082015290565b8051600681101561185e5715613b5d578051600681101561185e57600114613b02578051600681101561185e57600214613adc578051600681101561185e57600314613ab65751600681101561185e57600414613aae57604051613a97604082612c8e565b60078152662330613061326160c81b602082015290565b613a0a613884565b50604051613ac5604082612c8e565b60078152660233061303532360cc1b602082015290565b50604051613aeb604082612c8e565b60078152662332613061316160c81b602082015290565b60ff6040603292015116115f14613b3857604051613b21604082612c8e565b60078152662330613261336160c81b602082015290565b604051613b46604082612c8e565b60078152662332613061336160c81b602082015290565b60ff6040603292015116115f14613b9357604051613b7c604082612c8e565b60078152662330613361326160c81b602082015290565b604051613ba1604082612c8e565b60078152662333613161306160c81b602082015290565b60405190613bc7604083612c8e565b600782526608d9998d0d0d0d60ca1b6020830152565b8051600681101561185e5715613d08578051600681101561185e57600114613cad578051600681101561185e57600214613ca4578051600681101561185e57600314613c7e5751600681101561185e57600414613c5957604051613c42604082612c8e565b60078152661198183333333360c91b602082015290565b604051613c67604082612c8e565b600781526608cc0c19998d0d60ca1b602082015290565b50604051613c8d604082612c8e565b600781526611b0b09c1c333360c91b602082015290565b50613a0a613bb8565b60ff6040603292015116115f14613ce357604051613ccc604082612c8e565b600781526611981830b0b33360c91b602082015290565b604051613cf1604082612c8e565b60078152662366663030616160c81b602082015290565b60ff6040603292015116115f14613d3e57604051613d27604082612c8e565b60078152660466060cccc70760cb1b602082015290565b604051613d4c604082612c8e565b60078152660236666363630360cc1b602082015290565b600681101561185e578015613e3d5760018114613e1a5760028114613df75760038114613dd457600414613db257604051613d9f604082612c8e565b6003815262e29aa160e81b602082015290565b604051613dc0604082612c8e565b60048152633c27e9eb60e21b602082015290565b50604051613de3604082612c8e565b600481526301e13f3560e71b602082015290565b50604051613e06604082612c8e565b60048152630f09f8c960e41b602082015290565b50604051613e29604082612c8e565b60048152631e13f27160e31b602082015290565b50604051613e4c604082612c8e565b6004815263f09f8c8d60e01b602082015290565b90815115613f7f5781516002810180911161055c5760039004600281901b91906001600160fe1b0381160361055c57604051917f4142434445464748494a4b4c4d4e4f505152535455565758595a616263646566601f527f6768696a6b6c6d6e6f707172737475767778797a303132333435363738392b2f603f52602083018480518101602081018051915f82525b808910613f435750602095969750906003929152510680600114613f2e57600214613f21575b50808452830101604052565b603d905f1901535f613f15565b50603d90815f1982015360011901535f613f15565b939760036004910198603f8a51818160121c165183538181600c1c16516001840153818160061c16516002840153165160038201530193613eef565b9050604051613f8f602082612c8e565b5f81529056fea26469706673582212203d8be1ff996f1bad5d487fe8a373b3002d43a192f63c485f2d85a00649f4aab164736f6c634300081a0033",
  "linkReferences": {},
  "deployedLinkReferences": {}
}